:100000000C9434000C9446000C9446000C9446006A
:100010000C9446000C9446000C9446000C94460048
:100020000C9446000C9446000C9446000C94460038
:100030000C9446000C9446000C9446000C94460028
:100040000C9446000C9446000C9448000C94460016
:100050000C9446000C9446000C9446000C94460008
:100060000C9446000C94460011241FBECFEFD8E03C
:10007000DEBFCDBF22E0A0E0B1E001C01D92A533FC
:10008000B207E1F70E942E010C94AC010C94000021
:100090001F920F920FB60F9211248F93EF93FF933D
:1000A000E091020181E08E0F80930201F0E08091E7
:1000B000C600EB5CFE4F8083FF91EF918F910F9014
:1000C0000FBE0F901F90189588EE93E007C08FE841
:1000D00091E00197F1F700C00000C9012091BC0038
:1000E00022232CF09C0121503109892B81F708959E
:1000F000DF92EF92FF920F931F93CF93DF93CCEB9E
:10010000D0E00F2EF4EAEF2EF02DE8820E9464007A
:100110000BEB10E082E5F80180830F2EF4E8FF2E50
:10012000F02DF8820E94640084E0F8018083F88258
:100130000E946400E8820E94640083E5F8018083E5
:10014000F8820E9464000F2EF4ECEF2EF02DE8826E
:100150000E946400F801D080E8820E946400F801E7
:10016000E080F8820E946400F801808194E998831D
:100170006D2D7E2DDF91CF911F910F91FF90EF900C
:10018000DF90089595B19C7F95B9882321F084B1C3
:10019000816084B903C084B18E7F84B984B18260E8
:1001A00084B98FE39CE90197F1F700C0000084B1A6
:1001B0008D7F84B99FEF23ED80E3915020408040F4
:1001C000E1F700C000000895EF92FF920F931F9394
:1001D000CF93DF938C01D62F0F2EFCEBEF2EF12C5B
:1001E000F02D84EAF70180830E94640082E5809309
:1001F000BB0084E8F70180830E946400C0E00CC06B
:10020000F801EC0FF11D80818093BB0084E880939E
:10021000BC000E946400CF5FCD1790F3CCEBD0E020
:1002200084EA88830E9464000BEB10E083E5F80108
:1002300080830F2EF4E8FF2EF02DF8820E946400D8
:10024000F8820E946400F801808194E99883DF912C
:10025000CF911F910F91FF90EF900895E1ECF0E0A6
:10026000808188698083E2ECF0E080818660808311
:1002700083E090E09093C5008093C40088E480936D
:10028000B80080E00E94C2000E9478008091C00007
:1002900085FFFCCF7093C6008091C00085FFFCCF26
:1002A0006093C60081E00E94C200789480910201B0
:1002B0008630E1F78091C00085FFFCCF66E085E3E2
:1002C00091E00E94E4008093C600109202018091A8
:1002D00002018330E1F78091C00085FFFCCF63E02D
:1002E00085E391E00E94E4008093C6001092020131
:1002F00080910001909101018B3E934191F080919A
:1003000002018032E1F78091C00085FFFCCF60E2FE
:1003100085E391E00E94E4008093C6001092020100
:1003200011C0809102018831E1F78091C00085FF02
:10033000FCCF68E185E391E00E94E4008093C60071
:100340001092020180910001909101010196909319
:0C035000010180930001CCCFF894FFCF96
:00000001FF
