S00F0000626E6F70726F672E737265631E
S11300000C9434000C9446000C9446000C94460066
S11300100C9446000C9446000C9446000C94460044
S11300200C9446000C9446000C9446000C94460034
S11300300C9446000C9446000C9446000C94460024
S11300400C9446000C9446000C9448000C94460012
S11300500C9446000C9446000C9446000C94460004
S11300600C9446000C94460011241FBECFEFD8E038
S1130070DEBFCDBF22E0A0E0B1E001C01D92A533F8
S1130080B207E1F70E9416010C948C010C94000055
S11300901F920F920FB60F9211248F93EF93FF9339
S11300A0E091020181E08E0F80930201F0E08091E3
S11300B0C600EB5CFE4F8083FF91EF918F910F9010
S11300C00FBE0F901F90189589EE93E02091BC000D
S11300D027FD09C0019739F0EFE8F1E03197F1F716
S11300E000C00000F3CF0895DF92EF92FF920F93C8
S11300F01F93CF93DF93CCEBD0E084EAE82EE88221
S11301000E9464000BEB10E082E5F801808394E820
S1130110F92EF8820E94640084E0F8018083F8825A
S11301200E946400E8820E94640083E5F8018083F1
S1130130F8820E94640024ECE22EE8820E946400AB
S1130140F801D080E8820E946400F801E080F8821F
S11301500E946400F801808194E998836D2D7E2DBE
S1130160DF91CF911F910F91FF90EF90DF90089551
S113017095B19C7F95B9882311F0209A01C02098ED
S1130180219A8FE39CE90197F1F700C000002198C0
S11301909FEF23ED80E3915020408040E1F700C0C1
S11301A000000895FF920F931F93CF93DF93F82ECF
S11301B0092F162F84EA8093BC000E94640082E514
S11301C08093BB0084E88093BC000E946400CF2D20
S11301D0D02FCE01810F911D8C0184E8F82EC01719
S11301E0D10741F089918093BB00F092BC000E943A
S11301F06400F5CF84EA8093BC000E94640083E528
S11302008093BB00C4E8C093BC000E946400C09308
S1130210BC000E9464008091BB0094E99093BC00F0
S1130220DF91CF911F910F91FF9008958091C100AC
S113023088698093C1008091C20086608093C20067
S113024083E090E09093C5008093C40088E4809399
S1130250B80080E00E94B8000E9474008091C00041
S113026085FFFCCF7093C6008091C00085FFFCCF52
S11302706093C60081E00E94B800789480910201E6
S11302808630E1F78091C00085FFFCCF66E085E30E
S113029091E00E94D2008093C600109202018091E6
S11302A002018330E1F78091C00085FFFCCF63E059
S11302B085E391E00E94D2008093C600109202016F
S11302C080910001909101018B3E934151F0809106
S11302D002018032E1F78091C00085FFFCCF60E22B
S11302E009C0809102018831E1F78091C00085FF47
S11302F0FCCF68E185E391E00E94D2008093C600C0
S11303001092020180910001909101010196909355
S10F0310010180930001D4CFF894FFCFCA
S9030000FC
